:020000040800F2
:10000000D0060020890100081D1000081510000806
:1000100019100008910200083110000800000000CB
:100020000000000000000000000000002510000893
:1000300095020008000000002110000829100008A7
:10004000A3010008A3010008A3010008A301000800
:10005000A3010008A3010008A3010008A3010008F0
:10006000A3010008A3010008A3010008A3010008E0
:10007000A3010008A3010008A3010008A3010008D0
:10008000A3010008A3010008A3010008A3010008C0
:10009000A3010008A3010008A3010008A3010008B0
:1000A000A3010008A3010008A3010008A3010008A0
:1000B000A3010008A3010008A3010008A301000890
:1000C000A3010008A3010008A3010008A301000880
:1000D000A3010008A3010008A3010008A301000870
:1000E000A3010008A3010008A301000800F002F822
:1000F00000F03AF80AA090E8000C82448344AAF188
:100100000107DA4501D100F02FF8AFF2090EBAE885
:100110000F0013F0010F18BFFB1A43F0010318473B
:100120007410000094100000103A24BF78C878C101
:10013000FAD8520724BF30C830C144BF04680C60ED
:10014000704700000023002400250026103A28BF35
:1001500078C1FBD8520728BF30C148BF0B60704739
:100160001FB51FBD10B510BD00F058F81146FFF7C0
:10017000F7FF00F05FFF00F076F803B4FFF7F2FF3F
:1001800003BC00F07DF8000009488047094800479B
:10019000FEE7FEE7FEE7FEE7FEE7FEE7FEE7FEE737
:1001A000FEE7FEE704480549054A064B7047000094
:1001B0002D100008ED000008D0000020D00600201F
:1001C000D0020020D00200204FF0000200B51346FC
:1001D00094469646203922BFA0E80C50A0E80C5067
:1001E000B1F12001BFF4F7AF090728BFA0E80C5018
:1001F00048BF0CC05DF804EB890028BF40F8042B11
:1002000008BF704748BF20F8022B11F0804F18BF7D
:1002100000F8012B7047704770477047754600F033
:100220002BF8AE4605006946534620F00700854688
:1002300018B020B5FFF7B6FFBDE820404FF000062C
:100240004FF000074FF000084FF0000BAC46ACE851
:10025000C009ACE8C009ACE8C009ACE8C00921F0AD
:1002600007018D46704710B50446AFF30080204665
:10027000BDE81040FFF781BF004870471000002024
:1002800001491820ABBEFEE72600020070470000BF
:10029000FEE70000704700002DE9F04F82B00E68C5
:1002A000002E00F0038140F20C4C41F200424FF668
:1002B000FF7EC4F2010CC4F20102042700240123D2
:1002C000C1F2100E4FF0000A4FF00009904208BF33
:1002D0000327009745E000BF012704F00C030F221D
:1002E0009A402BEA020207FA03F34FEA9A051A43EF
:1002F00046F82520D1F804B040F20045C4F20105CB
:100300005FEACB322A6854BF22EA080242EA0802B6
:100310002A606A685FEA8B3354BF22EA080242EA25
:1003200008026A605FEACB23AA6854BF22EA080287
:1003300042EA08025FEA8B23AA60DCF800204FF053
:10034000010354BF22EA080242EA0802CCF8002066
:100350000E680AF1010A36FA0AF204F1040400F008
:10036000A58003FA0AF816EA080FF1D04E68764520
:1003700012DC122E56D8DFE806F0350B45495555EC
:1003800055555555555555555555554D510000BF69
:10039000D1F80C9046E000BF4FF6FF72C1F2210287
:1003A00096420FDC0022C1F2110296421AD00022BE
:1003B000C1F21202964215D00022C1F221029642E9
:1003C00010D02FE00022C1F2220296420AD0002271
:1003D000C1F23102964205D00022C1F232029642A9
:1003E00020D100BF8A684AB1012A14BFC0F8148026
:1003F000C0F810804FF0080914E000BF4FF0040966
:1004000010E000BFCA6802F108090BE04FF00009D4
:1004100008E000BFCA6802F1040903E0CA6802F1FB
:100420000C0900BF22460646BAF1080F24BF203A45
:10043000043637680F25954027EA050509FA02F2C8
:100440002A433260CA79D2067FF582AF41F218039F
:10045000C4F202031A6842F001021A601A6802F03C
:1004600001020192019A40F20042C4F20102A2F597
:100470007E762AF0030256F802B040F60002C4F27B
:100480000102904210D040F60042C4F201029042B4
:100490003FF422AF41F20002C4F20102009F9042F9
:1004A00008BF022719E700BF002716E702B0BDE822
:1004B000F08F0000C26802EA0103914341EA034160
:1004C00001617047002A08BF0904016170470000FC
:1004D00040F2CC00C2F200000068704770B5B8B3BB
:1004E000044690F83D0028B9002084F83C002046DE
:1004F00000F0B0F8242084F83D002068016821F065
:1005000001010160016841F400410160016821F4CA
:100510000041016000F07AFB48F28041C0F21E0108
:1005200040F60013D4F804E088424FF00001C0F216
:100530003D0348F2A16C4FF0000238BF0121984200
:10054000C0F2010C38BF0122E64538BF0A460AB1A5
:10055000012070BD4DF68361C4F21B31A0FB011276
:100560002168950C4B684FF4967623F03F0343EADD
:100570009243754344F6D3564B60C1F262060B6A50
:10058000A5FB0656B50923F03F03E64538BF950C99
:100590006A1C1A430A62CA6948F2A0664CF6FF73E5
:1005A000C0F20106B64522EA03020BD801384FEA31
:1005B0004E03B0FBF3F001306FF31F30042898BFF7
:1005C00004201EE0A368013863B119230EFB03F376
:1005D000B0FBF3F001306FF31F3078B100F58040CD
:1005E00008E000BF0EEB4E03B0FBF3F001306FF3F9
:1005F0001F3028B100F5004003E000BF012000E0FB
:1006000001201043C8610868D4E9072320F0C00026
:10061000104318430860886848F2FF3204F10C0662
:1006200090434CCE18431043A5698860C86820F0F9
:10063000FF0030432843C860086840F001000860AC
:1006400000202021206484F83D10206384F83E00BF
:1006500070BD000010B586B045F200410068C4F2DC
:10066000000100228842049202D006B010BD00BFF3
:1006700041F21804C4F20204206840F0080020602F
:10068000206800F0080001900198C020029012201C
:1006900003900320059001F5384002A9FFF7FCFD07
:1006A000606840F400106060606800F40010019021
:1006B000019806B010BD00002DE9F04383B01D463F
:1006C00017460E460446FFF703FF94F83D10202915
:1006D0000ED18046002E4FF0010018BF002F03D12D
:1006E00003B0BDE8F08300BF94F83C00012803D1BB
:1006F000022003B0BDE8F0830121206884F83C109B
:100700000168C90703D1016841F001010160016876
:100710004FF0000921F400610160222184F83D10AE
:10072000202184F83E10C4F8409066626785618D90
:1007300021850021CFF6FF71E162016841F48061FB
:100740000160416989071ED4691C12D0002D00F098
:100750008F8000BFFFF7BCFEA0EB0800A84200F2AC
:100760008980206841698907F4D50CE041698907CF
:1007700009D44169890706D4416989075CBF416989
:100780005FEA8171F2D5CDF80890416902918069E4
:1007900002900298208DA0B385B100BF2068416906
:1007A00049060FD44169C90600F19480FFF790FE15
:1007B000A0EB0800A842F1D97FE000BF20684169A2
:1007C000490675D50069616A0870606A2268411C33
:1007D000208D616201382085638D013B63855369FB
:1007E0005B070CD503040AD010690870606A218D7C
:1007F00001306062481E2085618D013961850004E9
:10080000CAD17DB12168084650F8142FD20617D4FA
:10081000016849053CD4FFF75BFEA0EB0800A84245
:10082000F0D90AE02168084650F8142FD20607D400
:10083000016849052CD4FFF74BFE20202CE000BFB7
:10084000002001904A6901920A6842F001020A60A0
:10085000019A0A6822F480620A60202184F83D101F
:1008600084F83E0084F83C0003B0BDE8F08300BF8C
:10087000FFF72EFE00202021206384F83D1084F82D
:100880003E00216C41F02001216484F83C0034E0FA
:100890006FF480610160042000212022216384F82C
:1008A0003D2084F83E10226C1043206420681EE036
:1008B0004169C9060ED4FFF70BFE002020212063FA
:1008C00084F83D1084F83E00206C40F02000206445
:1008D00020680BE06FF010014161002120222163AC
:1008E00084F83D2084F83E10216C2164002184F8B6
:1008F0003C10016821F480610160012003B0BDE873
:10090000F083000040F2000040F2CC01C2F200008F
:10091000C2F2000100780A681044086070470000C5
:1009200080B542F20000C4F20200016841F01001FB
:100930000160032000F07AF80F2000F005F800F0C5
:1009400027F8002080BD000070B540F20006C2F21A
:10095000000640F208013278C2F200014FF47A73C7
:100960000968B3FBF2F20446B1FBF2F1084600F06D
:100970003BFB0F2C4FF0010508D838B94FF0FF3082
:1009800021460022002500F025F87460284670BD3D
:1009900082B041F21800C4F202000168022241F064
:1009A00001010160016801F00101019101994168B3
:1009B00041F080514160406800F080500090009804
:1009C0000420C4F20100016862F31A61016002B000
:1009D0007047000010B54EF60C5CCEF2000CDCF84F
:1009E0000030C3F3022E8EF00704042C28BF042429
:1009F000BEF103034FF0FF3E0EFA04F438BF0023AC
:100A0000A14399400EFA03F39A43114300F00F02F9
:100A100000F160430901043A03F56443624400288D
:100A200048BF02F10C03197010BD00004EF60C51C6
:100A3000CEF200010A684FF6FF031A4060F30A2263
:100A400042F0806040F0FD70086070472DE9F0438F
:100A500081B0002800F0858042F20008C4F202084C
:100A60000446D8F800000D4600F0070088420CD27A
:100A7000D8F8000020F007002843C8F80000D8F894
:100A8000000000F00700A8426BD1206841F2040981
:100A90008107C4F2020917D5410705D5D9F800101E
:100AA00041F4E061C9F80010010705D5D9F800103C
:100AB00041F46051C9F80010D9F80010A26821F083
:100AC000F0011143C9F80010C00741D1D8F8000067
:100AD00000F00700A8420CD9D8F8000020F0070069
:100AE0002843C8F80000D8F8000000F00700A8422A
:100AF00037D12068410707D5D9F80010E26821F402
:100B0000E0611143C9F80010000708D5D9F80000CA
:100B1000216920F4605040EAC100C9F80000D9F80A
:100B2000002002F00C00082841F20020C0F27A00F8
:100B300050D141F28213C2F38341C0F60003595CE5
:100B4000D2033BD440F60010C0F23D00484341E0E0
:100B5000606802280AD001282AD159F8041C8903A8
:100B600008D4012001B0BDE8F08300BF59F8041C8F
:100B70008901F6D5D9F8001021F003010843C9F81E
:100B80000000FFF7A5FC064641F28837D9F80000BF
:100B9000616800F00C00B0EB810F97D0FFF798FC74
:100BA000801BB842F2D9032001B0BDE8F08300BF3A
:100BB00059F8041C8907D4D5DCE700BFD9F8002018
:100BC00041F26813C2F34042C0F600039A5C484306
:100BD000B0FBF2F0D9F8001041F26A12C1F3031130
:100BE000C0F60002515C40F2080220FA01F140F226
:100BF0000400C2F200000068C2F200021160FFF7B8
:100C0000A3FE002001B0BDE8F083000040F2080020
:100C100041F20401C2F20000C4F202010068096856
:100C200041F27A12C1F30221C0F60002515CC840C1
:100C3000704700002DE9F04182B0002868D00446DA
:100C4000007841F20006C007C4F2020625D07068A1
:100C500000F00C0004281BD0706800F00C0008287D
:100C600002D17068C00313D46068002800F0688166
:100C7000B0F5A02F00F07C81B0F5803F00F07C81C2
:100C8000306820F480303060306820F4802076E1D5
:100C90003068800301D56068D0B32078800718D50C
:100CA000706810F00C0F07D0706800F00C00082876
:100CB0006ED17068C0036BD43068800702D520699C
:100CC000012825D13068616920F0F80040EAC100B0
:100CD0003060207800071FD42078400732D4E569BF
:100CE00095B1706800F00C00082840F08F80012D4D
:100CF0000ED07068216A00F480328A4208D1616A9D
:100D000000F47010884203D1002002B0BDE8F081E9
:100D1000012002B0BDE8F081A069002862D0002067
:100D2000C4F242200121C0F88014FFF7D1FB054630
:100D3000706A800700F18C80FFF7CAFB401B022815
:100D4000F6D92AE1F06910F0805808D1F06940F036
:100D50008050F061F06900F080500090009847F2F8
:100D60000007C4F200073868C00529D4386840F489
:100D700080703860FFF7ACFB054600BF3868C005DF
:100D80001ED4FFF7A5FB401B6428F7D905E100BF7F
:100D90002069002840F20000C4F2422000F0828066
:100DA00001210160FFF794FB054600BF3068800712
:100DB0003FF588AFFFF78CFB401B0228F6D9ECE02B
:100DC000E068002800F08080052800F09780012866
:100DD00000F09880306A20F001003062306A20F024
:100DE000040092E00020C4F242200021C0F88014E8
:100DF000FFF76EFB054600BF706A80077FF56CAF9A
:100E0000FFF766FB401B0228F6D9C6E00027C4F2B4
:100E1000422700203866FFF75BFB022D05460BD109
:100E20003068800140F1BE80FFF752FB401B022872
:100E30004FF00300F4D968E7306880017FF564AFB4
:100E4000FFF746FB401B02284FF00300F4D95CE794
:100E500040F20800C2F20000006844F6D351C1F22B
:100E60006201A0FB0101480A019000BF00BF019888
:100E7000411E002801913FF42FAF00BF0198411E91
:100E8000002801913FF428AF00BF0198411E0028BF
:100E900001913FF421AF00BF0198411E002801914C
:100EA000E4D119E700210160FFF712FB054600BFFE
:100EB000306880077FF50DAFFFF70AFB401B022863
:100EC0004FF00300F4D920E7306A20F001003062CF
:100ED000306A20F004003062FFF7FAFA054641F26A
:100EE000883700BF306A800720D5FFF7F1FA401B32
:100EF000B8424FF00300F5D907E700BF306A40F071
:100F000004003062306A40F001003062FFF7E0FA1E
:100F1000054641F2883700BF306A800706D4FFF7E4
:100F2000D7FA401BB842F7D937E000BFB8F1000F3D
:100F30007FF4D5AEF06920F08050F061CFE600BFBD
:100F4000306820F480303060306820F480203060D9
:100F5000FFF7BEFA054600BF306880037FF59DAEFF
:100F6000FFF7B6FA401B64284FF00300F4D9CCE633
:100F7000306840F480203060306840F48030306069
:100F8000FFF7A6FA054600BF306880033FF585AE3F
:100F9000FFF79EFA401B6428F6D9032002B0BDE893
:100FA000F08100BF206AB0F5803F05D17168A2686A
:100FB00021F40031114371607168626A21F4741187
:100FC00011430843706001203866FFF781FA044638
:100FD000306880013FF598AEFFF77AFA001B0228CF
:100FE0004FF00300F4D990E6411E0020B0EB116FE2
:100FF0001CBF012070474EF21002CEF20002516079
:101000004EF62351CEF20001F0230B7007219060C1
:1010100011607047FEE70000FEE70000FEE70000F9
:101020007047000070470000FFF76CBC704700007D
:10103000FEE7000090B0FFF773FC06AC201D2421F2
:10104000FFF7C2F80220069001200A9010200B90B2
:10105000002520460D95FFF7EDFD28B1EFF3108038
:1010600072B600BFFEE700BF0F20CDE9010501A861
:101070000021CDE903550595FFF7E8FC20B1EFF31A
:10108000108072B6FEE700BF41F21800C4F2020001
:10109000016841F2000441F0100101600168C4F2EE
:1010A000010401F01001069106990168002241F047
:1010B0002001016001684FF4005501F02001069104
:1010C00006990168002641F004010160016801F001
:1010D000040106910699016841F008010160006869
:1010E0004FF4005100F00800069006982046FFF7E4
:1010F000E9F90120CDE907060220099006A920465A
:101100000695FFF7C9F840F27005C2F20005A4F594
:101110003C41284640F8081F48F2A061C0F2010196
:101120001422C0E9011600F10C014FF480434CC1B8
:10113000C0E906660662FFF7D1F928B1EFF3108027
:1011400072B600BFFEE700BF05F10806304629462B
:1011500005226423FFF7B0FA0028F7D120464FF4A8
:101160000051FFF7A7F9F1E70102000000000000BD
:101170000000010203040607080900000000010244
:10118000030402030405060708090A0B0C0D0E0FE1
:1011900010100000B811000800000020100000002E
:1011A00028010008C811000810000020C006000037
:1011B00044010008000000000100000010000000D1
:0811C0000024F400000000000F
:04000005080000ED02
:00000001FF
